:10000000F8050400000000000000000000000000EF
:1000100000000000000000000000000000000000E0
:1000200000000000000000000000000000000000D0
:1000300000000000000000000000000000000000C0
:1000400000000000000000000000000000000000B0
:100BF0000F842000F07F220020A0B700000020001A
:100C000034A0B700400020004420B700F4060200E2
:100C100000000000FE060200000000008A1F7800AD
:100C20008B1F78008C1F7800F0FF2F002CA3B700DB
:100C300037FF07001AC0B300B2FF0700CAC0B300F5
:100C4000B0FF07009C8120006B0020001A002000EC
:100C500064FF07001C8120006B0020002A00200098
:100C600060FF0700E8032000379120000E20ED0010
:100C7000FEFF3A001020ED00FCFF3A0000000000EB
:100C80001AC0B3009FFF07000C8020001B0020004B
:100C90001A00200053FF07007C8220005B00200028
:100CA0002A0020004FFF0700E803200037912000B2
:100CB0000E20ED00FEFF3A001020ED00FCFF3A0090
:100CC00000000000318320000020EF008048780001
:100CD00030832000104078006404E10007003100F8
:100CE000CAC1B30087FF07007FFF070011C0B30030
:100CF0003083200010C84000F5FF3700318320000A
:100D00000020EF00804878003083200010407800F9
:100D10006804E100070031008AC1B30079FF0700D1
:100D200071FF070011C0B3003083200010C84000DD
:100D3000F5FF3700318320000020EF008048780065
:100D400030832000104078006804E1000700310083
:100D5000CAC1B3006BFF070063FF070011C0B300F7
:100D60003083200010C84000F5FF3700E3FF370054
:100D70004F067800CF0578004F057800FFFF370059
:100910000000FA0068FF070067FF0700D222A90065
:10092000D202A900C602A900C622A900C642A90097
:10093000C662A900D622A900D602A900CA62A900EF
:10094000CA42A900CA22A900CA02A900CA22A80054
:10095000CA02A8005CFF070053FF07005AFF070008
:1009600051FF070058FF07004FFF0700CA02A90008
:1009700055FF07004CFF070053FF0700CA22A900DC
:10098000CA62A80050FF070047FF0700CA62A9001B
:10099000CA02A8004CFF0700CA02A9004AFF0700CC
:1009A00041FF070048FF0700CA02A80046FF0700F2
:1009B0003DFF0700CA02A90043FF0700CA62A80062
:1009C000CA42A800CA22A800CA02A8003EFF070027
:1009D00035FF0700408320001000A0000080FA00CF
:0409E000000006000D
:1006B80007E823000E20ED00FEFF3A0000000600C8
:1006C8000000FA00D622A8004BFF0700D622A90096
:0C06D80049FF07000080FA000000060047
:10040000270020000E20ED00FEFF3A00000006004D
:1006A80087AF22000E20ED00FEFF3A000000060092
:100B04000000FA008A80FB0002E0AE00CA62A9007D
:100B140002E0AF00CA62A80002C0AE00CA42A90047
:100B240002C0AF00CA42A80002A0AE00CA22A900B7
:100B340002A0AF00CA22A8000280AE00CA02A90027
:100B44000280AF00CA02A800408320001000A60063
:100B5400D602A8001000A700D602A900D9FE0700FB
:100B64000260AE00CA62A9000260AF00CA62A800B7
:100B74000240AE00CA42A9000240AF00CA42A80027
:100B84000220AE00CA22A9000220AF00CA22A80097
:100B94000200AE00CA02A9000200AF00CA02A80007
:100BA400408320001000A600D602A8001000A70071
:100BB400D602A900C3FE0700408320001000A6004F
:100BC40002003700B7FE070001003700A9FE070046
:080BD4000080FA000000060099
:10067800470620000E20ED00FEFF3A0000000600AD
:1009E4000000FA008A1F78000A0037000A08200075
:1009F400110037000A0C20000F0037004A092000BC
:100A04000D0037004A0D20000B0037000A082000B3
:100A1400090037006150E100F4FF32006250E10048
:100A2400F4FF32006350E100F4FF32006450E1004F
:100A3400F4FF3200F5FF37006180550000004500E7
:100A440000057800004578002D0007004083200051
:100A54001000A1000420EF00020046001004E00092
:100A640007003200020046008A1F78001045780013
:100A740004FF07004F0578000420EC00F6FF370060
:100A8400408320001000A0004F0578000080FA0089
:040A94000000060058
:100688000000FA00408320001000A1001B010700B1
:10069800408320001000A0000080FA00000006003F
:100AE80008012000472424000E20ED00FEFF3A00F4
:0C0AF8001020ED00FCFF3A00000006009A
:1006F8000800FA0080202000E0418800A031200096
:10070800D041880060322000C041880000332000BA
:10071800B04188002022EF000000280022A2B70084
:100728002062A900EFFF07000001BE00803E200004
:100738000100200047FF07000001BE00E7FF070097
:100748004100DE006400400080007800600047003F
:100758000A88BE008100E900030035001018D000A7
:100768001090D200FBFF3700829FBE008A9FBE0018
:100778000200BE000E0190009E0190000002EB00F6
:100788006DFF07004F05BE004F01BE00200798000F
:10079800310798008A9FBE000200BE000E0190003B
:1007A8009E0190000002EB003AFF07004F05BE00D3
:1007B8008001780001027800600047005001D100F4
:1007C800C080D300640047003008E1002090E100B9
:1007D8000700310061804100E0004A008002780093
:1007E80001037800050178008601780002003700CF
:1007F80003017800840178000280710033003A0018
:10080800B8FF07000001BE00803E20000100200064
:1008180010FF07000001BE00B0FF07004100DE0026
:1008280000A0EC0080007800600047000A88BE0045
:100838008100E900030035001018D0001090D200A4
:10084800FBFF3700829FBE000200BE000E01900031
:100858009E0190000002EB0037FF07004F01BE0029
:1008680020079800310798000200BE000E01900092
:100878009E0190000002EB0006FF0700800178004F
:1008880001027800600047005001D100C080D30009
:10089800640047003008E1002090E10007003100C3
:1008A80061804100E0004A0080027800010378007E
:1008B80005017800860178000200370003017800FE
:1008C800840178002062A800000037006100510010
:1008D800E0805900401188002222A90021E2A800E6
:1008E8002342A800E4FE0700E3FE07000080FA00A8
:0408F80000000600F6
:0C06EC0000EE22000100200000000600CB
:0806E4002000200000000600C8
:100480004800200007D420000E20ED00FEFF3A00B7
:0C0490001020ED00FCFF3A000000060008
:10045C000000FA00020AB800500088000200B80040
:10046C0081004200032AB800810042000080FA009B
:04047C000000060076
:100540000000FA0002000700F402040000000000AE
:100550000800E20002003A00100007000000060058
:10056000811F78000200E20002003D0060001000E0
:10057000E08018000600E20002003D00600111006A
:10058000E0811900050007004F00E00002003B0079
:1005900060001000E0801800000006000200070064
:1005A0000480BE00000006006022B80006022000A1
:1005B0000000D0008180D2000482D2008582D20067
:1005C0000000A8000202520083825A0003003B0090
:1005D0000202420083824A000000A1000603E900F3
:1005E000F3FF3A00000006000080FA000000060059
:10049C000000FA00020007009C02040000000000AB
:1004AC000800E20002003A001000070000000600FD
:1004BC00839F68000200E20002003D006000100013
:1004CC00E08018000600E20002003D00600111000F
:1004DC00E0811900050007004F00E00002003B001E
:1004EC0060001000E0801800000006006022B800D8
:1004FC00060220000000D0008180D2000482D200CD
:10050C008582D2000000A8000202520083825A00A9
:10051C0003003B000202420083824A000000A1005B
:10052C000603E900F3FF3A00000006000080FA0021
:04053C0000000600B5
:100A98000200FA0000002000004798001A40780081
:100AA8006004E1000C0032008A1F78000085FB001A
:100AB80063FE07004F0578000E4090000060EC00D0
:100AC800004798000080FB00000045009040780037
:100AD80001407800F2FF37000080FA0000000600AD
:100448000000FA00E0418000000001000080FA008E
:04045800000006009A
:100410000000FA002302AF0001003700FDFF3700A3
:0C0420002A1188000080FA00000006008D
:10042C000000FA003302AF0001003700FDFF370077
:0C043C00AA1188000080FA0000000600F1
:100BDC000000FA00C1418000010001000080FA0011
:040BEC0000000600FF
:100634000000FA0000000000000000002682BF0055
:080644000080FA00000006002E
:10064C000000FA002282BF00610060000080FA0006
:04065C000000060094
:100660000000FA000020EF002302AF000020EC00A1
:080670000080FA000000060002
:1005F0000000FA0000000000000000003682BF008A
:080600000080FA000000060072
:100608000000FA003282BF00610060000080FA003A
:0406180000000600D8
:10061C000000FA000020EF003302AF000020EC00D5
:08062C000080FA000000060046
:1008FC000000FA00D1418000010001000080FA00E4
:04090C0000000600E1
:100DE8000A8020000B0020001F0009000B1D78005E
:040DF80000000600F1
:100DFC0001802000006C280018000900B018780051
:080E0C00B05878000000060058
:100D80006D6900006B7200006F4500006C6500002B
:100D90006B740000726F00006E6900006B610000F0
:100DA00000650000786100006D7000006C65000057
:100DB000004C0000636400003462000069740000AD
:100DC00000530000746100007274000000450000D0
:100DD0006173000079640000735000004943000013
:080DE000344100000000000096
:020000040001F9
:0857F800BDFA00007F3E000035
:00000001FF
